:020000040000fa
:080000000002040000000000f2
:020000040000fa
:04000800ee03000003
:020000040000fa
:04000c00c802000026
:020000040000fa
:040010000a030000df
:020000040000fa
:04001400e8020000fe
:020000040000fa
:040018002a030000b7
:020000040000fa
:04001c00ee030000ef
:020000040000fa
:04002000ee030000eb
:020000040000fa
:04002400ee030000e7
:020000040000fa
:04002800ee030000e3
:020000040000fa
:04002c00ee030000df
:020000040000fa
:04003000ee030000db
:020000040000fa
:04003400860300003f
:020000040000fa
:04003800ee030000d3
:020000040000fa
:04003c00ee030000cf
:020000040000fa
:04004000ee030000cb
:020000040000fa
:04004400ee030000c7
:020000040000fa
:04004800ee030000c3
:020000040000fa
:04004c00ee030000bf
:020000040000fa
:04005000ee030000bb
:020000040000fa
:040054004a0300005b
:020000040000fa
:04005800ee030000b3
:020000040000fa
:04005c00ee030000af
:020000040000fa
:04006000ee030000ab
:020000040000fa
:04006400ee030000a7
:020000040000fa
:04006800ee030000a3
:020000040000fa
:04006c00ee0300009f
:020000040000fa
:04007000ee0300009b
:020000040000fa
:04007400be030000c7
:020000040000fa
:04007800ee03000093
:020000040000fa
:04007c00ee0300008f
:020000040000fa
:04008000ee0300008b
:020000040000fa
:04008400ee03000087
:020000040000fa
:04008800ee03000083
:020000040000fa
:04008c00ee0300007f
:020000040000fa
:04009000ee0300007b
:020000040000fa
:04009400ee03000077
:020000040000fa
:04009800ee03000073
:020000040000fa
:04009c00ee0300006f
:020000040000fa
:0400a000ee0300006b
:020000040000fa
:0400a400ee03000067
:020000040000fa
:0400a800ee03000063
:020000040000fa
:0400ac00ee0300005f
:020000040000fa
:0400b000ee0300005b
:020000040000fa
:0400b400ee03000057
:020000040000fa
:0400b800ee03000053
:020000040000fa
:0400bc00ee0300004f
:020000040000fa
:0400c000ee0300004b
:020000040000fa
:0400c400ee03000047
:020000040000fa
:0400c800ee03000043
:020000040000fa
:0400cc00ee0300003f
:020000040000fa
:0400d000ee0300003b
:020000040000fa
:0400d400ee03000037
:020000040000fa
:0400d800ee03000033
:020000040000fa
:0400dc00ee0300002f
:020000040000fa
:0400e000ee0300002b
:020000040000fa
:0400e400ee03000027
:020000040000fa
:0400e800ee03000023
:020000040000fa
:0400ec00ee0300001f
:020000040000fa
:0400f000ee0300001b
:020000040000fa
:0400f400ee03000017
:020000040000fa
:0400f800ee03000013
:020000040000fa
:0400fc00ee0300000f
:020000040000fa
:04010000ee0300000a
:020000040000fa
:04010400ee03000006
:020000040000fa
:04010800ee03000002
:020000040000fa
:04010c00ee030000fe
:020000040000fa
:04011000ee030000fa
:020000040000fa
:04011400ee030000f6
:020000040000fa
:04011800ee030000f2
:020000040000fa
:04011c00ee030000ee
:020000040000fa
:04012000ee030000ea
:020000040000fa
:04012400ee030000e6
:020000040000fa
:04012800ee030000e2
:020000040000fa
:04012c00ee030000de
:020000040000fa
:04013000ee030000da
:020000040000fa
:04013400ee030000d6
:020000040000fa
:04013800ee030000d2
:020000040000fa
:04013c00ee030000ce
:020000040000fa
:04014000ee030000ca
:020000040000fa
:04014400ee030000c6
:020000040000fa
:04014800ee030000c2
:020000040000fa
:04014c00ee030000be
:020000040000fa
:04015000ee030000ba
:020000040000fa
:04015400ee030000b6
:020000040000fa
:04015800ee030000b2
:020000040000fa
:04015c00ee030000ae
:020000040000fa
:04016000ee030000aa
:020000040000fa
:04016400ee030000a6
:020000040000fa
:04016800ee030000a2
:020000040000fa
:04016c00ee0300009e
:020000040000fa
:04017000ee0300009a
:020000040000fa
:04017400ee03000096
:020000040000fa
:04017800ee03000092
:020000040000fa
:04017c00ee0300008e
:020000040000fa
:04018000ee0300008a
:020000040000fa
:04018400ee03000086
:020000040000fa
:04018800ee03000082
:020000040000fa
:04018c00ee0300007e
:020000040000fa
:04019000ee0300007a
:020000040000fa
:04019400ee03000076
:020000040000fa
:04019800ee03000072
:020000040000fa
:04019c00ee0300006e
:020000040000fa
:04020800ee03000001
:020000040000fa
:04020c00c802000024
:020000040000fa
:040210000a030000dd
:020000040000fa
:04021400e8020000fc
:020000040000fa
:040218002a030000b5
:020000040000fa
:04021c00ee030000ed
:020000040000fa
:04022000ee030000e9
:020000040000fa
:04022400ee030000e5
:020000040000fa
:04022800ee030000e1
:020000040000fa
:04022c00ee030000dd
:020000040000fa
:04023000ee030000d9
:020000040000fa
:04023400860300003d
:020000040000fa
:04023800ee030000d1
:020000040000fa
:04023c00ee030000cd
:020000040000fa
:04024000ee030000c9
:020000040000fa
:04024400ee030000c5
:020000040000fa
:04024800ee030000c1
:020000040000fa
:04024c00ee030000bd
:020000040000fa
:04025000ee030000b9
:020000040000fa
:040254004a03000059
:020000040000fa
:04025800ee030000b1
:020000040000fa
:04025c00ee030000ad
:020000040000fa
:04026000ee030000a9
:020000040000fa
:04026400ee030000a5
:020000040000fa
:04026800ee030000a1
:020000040000fa
:04026c00ee0300009d
:020000040000fa
:04027000ee03000099
:020000040000fa
:04027400be030000c5
:020000040000fa
:04027800ee03000091
:020000040000fa
:04027c00ee0300008d
:020000040000fa
:04028000ee03000089
:020000040000fa
:04028400ee03000085
:020000040000fa
:04028800ee03000081
:020000040000fa
:04028c00ee0300007d
:020000040000fa
:04029000ee03000079
:020000040000fa
:04029400ee03000075
:020000040000fa
:04029800ee03000071
:020000040000fa
:04029c00ee0300006d
:020000040000fa
:0402a000ee03000069
:020000040000fa
:0402a400ee03000065
:020000040000fa
:0402a800ee03000061
:020000040000fa
:0402ac00ee0300005d
:020000040000fa
:0402b000ee03000059
:020000040000fa
:0402b400ee03000055
:020000040000fa
:0402b800ee03000051
:020000040000fa
:0402bc00ee0300004d
:020000040000fa
:0402c000ee03000049
:020000040000fa
:0402c400ee03000045
:020000040000fa
:0402c800ee03000041
:020000040000fa
:0402cc00ee0300003d
:020000040000fa
:0402d000ee03000039
:020000040000fa
:0402d400ee03000035
:020000040000fa
:0402d800ee03000031
:020000040000fa
:0402dc00ee0300002d
:020000040000fa
:0402e000ee03000029
:020000040000fa
:0402e400ee03000025
:020000040000fa
:0402e800ee03000021
:020000040000fa
:0402ec00ee0300001d
:020000040000fa
:0402f000ee03000019
:020000040000fa
:0402f400ee03000015
:020000040000fa
:0402f800ee03000011
:020000040000fa
:0402fc00ee0300000d
:020000040000fa
:04030000ee03000008
:020000040000fa
:04030400ee03000004
:020000040000fa
:04030800ee03000000
:020000040000fa
:04030c00ee030000fc
:020000040000fa
:04031000ee030000f8
:020000040000fa
:04031400ee030000f4
:020000040000fa
:04031800ee030000f0
:020000040000fa
:04031c00ee030000ec
:020000040000fa
:04032000ee030000e8
:020000040000fa
:04032400ee030000e4
:020000040000fa
:04032800ee030000e0
:020000040000fa
:04032c00ee030000dc
:020000040000fa
:04033000ee030000d8
:020000040000fa
:04033400ee030000d4
:020000040000fa
:04033800ee030000d0
:020000040000fa
:04033c00ee030000cc
:020000040000fa
:04034000ee030000c8
:020000040000fa
:04034400ee030000c4
:020000040000fa
:04034800ee030000c0
:020000040000fa
:04034c00ee030000bc
:020000040000fa
:04035000ee030000b8
:020000040000fa
:04035400ee030000b4
:020000040000fa
:04035800ee030000b0
:020000040000fa
:04035c00ee030000ac
:020000040000fa
:04036000ee030000a8
:020000040000fa
:04036400ee030000a4
:020000040000fa
:04036800ee030000a0
:020000040000fa
:04036c00ee0300009c
:020000040000fa
:04037000ee03000098
:020000040000fa
:04037400ee03000094
:020000040000fa
:04037800ee03000090
:020000040000fa
:04037c00ee0300008c
:020000040000fa
:04038000ee03000088
:020000040000fa
:04038400ee03000084
:020000040000fa
:04038800ee03000080
:020000040000fa
:04038c00ee0300007c
:020000040000fa
:04039000ee03000078
:020000040000fa
:04039400ee03000074
:020000040000fa
:04039800ee03000070
:020000040000fa
:04039c00ee0300006c
:020000040000fa
:100400000f9e20000e7f24000e01880000000000d7
:10041000000020000000e000020032000001200087
:100420002002880014000700ee0007000000e00032
:1004300003003a0020fc20000100200002003700e9
:100440000000200001002000810f70000100320038
:1004500014000700000020000000e000020032004d
:100460000000020000000000a80e020000000000d2
:100470000040da000000fe004440a900800b20008c
:100480000000e0000300320000002000a00188000e
:100490004440a800000006008a1f78008b1f7800e7
:1004a0000000060091018800800478000000eb0045
:1004b0001a003700e284440032a0b4009905ba0063
:1004c000e284440032a0b4009906ba00e2844400f9
:1004d00032a0b4000006eb00476fde00fd07b2005b
:1004e000636ce10003003a00ebff07000000eb0043
:1004f0000a003700606ce10004003a00005deb0088
:100500008b05e900fdff3e00040037006168e10053
:10051000010032000086eb000b00070019c7ba008b
:100520001905ba000e04e00003003a000a00e000da
:10053000e0ff3a0000000600fe07b2009e018800be
:100540008a047800f5ff3700395dba008b05e900b1
:100550000c003200295dba008b05e900080032006a
:100560000c00e00003003a00e284440032a0b40032
:10057000f5ff370019ddba008b05e900faff3a00f4
:100580008904e800e184440032a0b40000000600c1
:100590003600f800809fbe00829fbe00849fbe0090
:1005a000869fbe000000fa008020a9000000eb003a
:1005b000230707000080fa004f03be004f02be0071
:1005c0004f01be004f00be003600f900004006009b
:1005d0003600f800809fbe00829fbe00849fbe0050
:1005e000869fbe000000fa001a0707008040a9009d
:1005f00010002000120707000080fa004f03be0021
:100600004f02be004f01be004f00be003600f90091
:10061000004006003600f800809fbe00829fbe00aa
:10062000849fbe00869fbe000000fa008060a90083
:1006300020002000020707000080fa004f03be00e0
:100640004f02be004f01be004f00be003600f90051
:10065000004006003600f800809fbe00829fbe006a
:10066000849fbe00869fbe000000fa008080a90023
:1006700030002000f20607000080fa004f03be00a1
:100680004f02be004f01be004f00be003600f90011
:1006900000400600809fbe00821f78000000fa0024
:1006a0008560a90030118000f04188004028ef00eb
:1006b0000a00370000428000014280008100e8000b
:1006c000e28b200062c17800e18b2000827078000c
:1006d000004280000000e8000042880001428000e3
:1006e00020062000808f5000f2ff3400f04180008f
:1006f0008040780010922000014878000080fa00c5
:100700004f0178004f00be0000400600809fbe00f1
:100710000000fa000021ef008460a9002042800060
:100720000000e80020428800704180000000e000e6
:1007300003003200704180000000e9007041880031
:10074000704180000000e00002003a0010c0b300d9
:1007500030e8b7002142800080382100808f5000af
:1007600003003a0010002000104288004428ef00e7
:100770000080fa004f00be0000400600801f780095
:100780000000fa008660a900f04080000000e80048
:10079000f0408800f0408000e10f500002003a0075
:1007a0000621ef0011e1a800f0408000e30f5000a7
:1007b00007003a00d5a2a80011e1a9001e28ef0009
:1007c00030088000c04088001000200000418800f0
:1007d0000080fa004f007800004006000040da0078
:1007e0000000fe0000000500889fbe008a9fbe003a
:1007f0008c1f7800960007009d00330003866c0074
:100800006450e1002e0032006420e1003300320029
:100810006150e1002f0032006120e1003100320020
:1008200085855500eb07b000090020000804200072
:10083000050037000804440089844c000a00310098
:100840000603430087834b000001530081815b0056
:10085000f8ff33000203be000800a00008044400b3
:1008600089844c00f6ff3900c639dd00830173002e
:1008700001003200130020008904d1000884d30055
:100880000998a300050032000800a7000300a0009b
:100890008904d1000884d3008b05e8008904d100c5
:1008a0000884d3000001eb000281d2002d00070074
:1008b00001f0a1000cf0a70001f0a00075003700c6
:1008c0006420e100770032000801be000200be0093
:1008d000f7ff37006120e100720032006000b800cd
:1008e000f3ff37000000200001f82700f0ff370079
:1008f0000001be00410007000470a70003f0a10042
:1009000003f8a30013003a006509b100100032009b
:10091000090035006928e1000200350001002800c7
:100920000000050000004000818048008502e900c9
:10093000fcff3a0000000600f88f42000500350079
:100940008100d1000080d3008502e800fcff3a005e
:10095000000006008000eb00000005006011b800f8
:100960008700370081002000618055000b003d00aa
:100970000b00200061fe2f000100e1001d0034008b
:1009800082817100610164008904d1000884d30070
:100990000000e800faff3a007100200061006400e6
:1009a000030070000200600009003200610444008e
:1009b000e0844c000988a500050032008b05e800a2
:1009c0006808e10002003a008904d1000884d300dd
:1009d000f20f20000258e10005003d00c75ddd0078
:1009e000f907b20089807500080078000000060051
:1009f0000bf827008b00780000000500c70ade0016
:100a0000f107b200f50fb20008003200e1cf42005a
:100a1000020032000170a00024000500810f700068
:100a2000010032000408050044000500810f700039
:100a300002003a00140005008502e90000004000b1
:100a400081c04800fcff3b000170a00024000500ad
:100a50000004be00e9ff07000003be000405be005d
:100a60000200be00e5ff0700844f7500000006008d
:100a70000200be006450e100050036006420e10081
:100a8000020036000968a30001003a000800be0019
:100a90000160a0004f0678004f05be004f04be0065
:100aa00000000600f0ff2f00f1ff2700f9ff3700dc
:100ab000889fbe008a9fbe008c1f7800e4ff07005d
:100ac000ebff330003866c006450e1002400320029
:100ad0006420e100270032006150e1002200320072
:100ae0006120e100210032008b854200eb07b1005c
:100af0000134b800003ab8000804420089844a0072
:100b0000013ab8000030b8008880400009014a006e
:100b100004003300000040008180480002014900c9
:100b20008b05e900c909dd00830170000100320076
:100b300013002000c814de004814dd004709de0061
:100b40001200b200c808de000884700085ff0700ac
:100b500001f0a1000cf0a70001f0a000cdff3700cc
:100b60006120e100cfff32000801be000200be009c
:100b7000f7ff37006150e100fcff3a00c9ff370082
:100b8000889fbe008a9fbe00008270000402710030
:100b900004827100260032000004be000200be0084
:100ba0006011b8006b092000950220000182cf007f
:100bb0000a0039000541b1000082cf00070039006a
:100bc0000541b1000982cf00040039000541b100a0
:100bd0000882cf00010039000541b10005425200f2
:100be000120032000a003b00828171006101640042
:100bf0008100d1000080d3008984d3000884d30011
:100c00008b05e8000442e800f7ff3a0007003700d0
:100c10000804440089844c0000004800818048009a
:100c20008b05e9000442e900f9ff3a004dff070097
:100c30004f05be004f04be00000006008001780092
:100c400002003700b15978000201e9000200e0001b
:100c5000fcff3a0000000600889fbe008104780077
:100c6000194478000804e0000e0032000600370046
:100c7000d24178000304e0000a003200d1cf110015
:100c8000fbff32000000e8008800fb0007000700bf
:100c90000000e000030032000901780080007800c5
:100ca000f3ff37004f04be00000006000001eb0018
:100cb000030037000201e8000404e00007003200ee
:100cc0006103b8006112b8008601420066427a00f2
:100cd000814f5200f7ff3a00010037008001eb001e
:080ce00003007800000006008b
:020000040000fa
:100ce800415400000d0000004f4b0000004100007f
:100cf800542b0000434d0000474600003d310000e2
:100d08000d000000415400002b4300004d47000037
:100d18004c3d0000414c00004c0d0000005200000a
:100d280045430000205500004e5200004541000098
:100d380044000000415400002b4300004d470000d0
:100d4800523d0000004900006e6600006f7200000e
:100d58006d610000636900006a65000000410000e1
:100d6800542b000043500000424600003d000000a4
:100d780054610000746a0000616e000061000000a8
:100d88002b43000050420000463a0000002c0000af
:100d9800222b000000410000542b0000434e0000ad
:100da8004d4900003d3100002c3000002c3000007f
:100db8002c3000002c3100000d00000041540000d0
:100dc8002b4300004d470000533d0000003e00004b
:100dd8000043000075720000726500006e74000028
:100de80020540000656d000070650000726100000d
:100df80074750000726500003a200000004300008e
:100e08006f6c00006f7200003a2000000041000083
:100e1800542b0000434d0000474400003d000000f3
:100e280047520000454500004e00000052450000b2
:100e380044000000434100004e27000054200000f9
:100e480044450000544500004354000000000000e1
:020000040000fa
:100e58000000fa009580a9009560a90020a2a900c9
:100e68002062a9002182a90020c2a90001118000e6
:100e780090ff2f0000806000001188002022a90048
:100e88002042a9002162a8002082a9002002a9000e
:100e980021a2a90020e2a90001118000f0cf2f00b3
:100ea80000806000001188002102a9002122a90009
:100eb800700620004011880022a2a90023e2a900a0
:100ec80023a2a90023c2a9002362a9002342a800e3
:100ed8002322a9002302a90022e2a90022c2a90014
:100ee80022a2a9002282a9002262a9002242a90006
:100ef8002222a9002202a90041058000f0ff280053
:100f08000080600000c0a0004005880051058000f6
:100f180080ff2f0000806000500588008560a900d0
:100f28008580a9009560a8009580a90021e2a80005
:100f38002342a800113a8000f00b200000816000d5
:100f48006004200071052000237420008049780087
:100f580081497800824978002135800000fc2f0003
:100f6800008060000020a000203588001136800035
:100f7800f00f2c008080600000302000010070001d
:100f880010368800103a8000000178000260a00046
:100f98006004200071052000237420008049780037
:100fa8008149780082497800d922a800d942a9004d
:100fb8000080fa00000006000200fa00004f7800e6
:100fc8000000000011118000001020000080600067
:100fd8000000e000fbff32001e80fb0020118800ab
:100fe8000080fa00000006000200fa00000f7800f6
:100ff800040037001e00780010407800eeff07005c
:101008001e0fe8001e007800104078000004e00081
:10101800f8ff3a000080fa00000006000200fa001b
:101028000000eb00000f780005003700e08b20007f
:101038001e00400001c3b300014878001e0fe800fd
:10104800300620009e007800808f5000f7ff3400a3
:101058000080fa00000006000800fa002007980047
:1010680031079800be0090002e009000f8fe07009f
:10107800100798001e0090000000e00006003200f3
:101088009e0090002e009000008050000000e800b4
:10109800000f7800020037000000eb00000f780016
:1010a8001e007800004078000080fa00000006006a
:1010b8000000fa0030c8bf000004e000020032005f
:1010c8003068ef002c28ef00d4ff070000b424009c
:1010d800c10420004a0407000080fa00000006004e
:1010e8000000fa0040672800bfff07008038210091
:1010f800704188003068ef002228ef0000000000ef
:1011080081672800e08b2000d3ff07000004e0007f
:1011180003003a0030c8bf000004e000f8ff3200c6
:1011280081672800e08b2000cbff07000080fb00d0
:1011380010418800104180000000e00002003200e9
:101148001000200060418800d9ff07000080fa00e5
:10115800000006000000fa00b0672800a2ff0700a0
:1011680080bb2000704188003068ef002228ef0023
:101178000000000081672800e08b2000b6ff070010
:101188000004e00003003a0030c8bf000004e0009b
:10119800f8ff320081672800e08b2000aeff0700cf
:1011a8000080fb0010418800104180000000e00032
:1011b800020032002000200060418800bcff0700c8
:1011c8000080fa00000006000000fa0060682800ad
:1011d80085ff070080382100704188003068ef00e3
:1011e8002228ef002828ef000000000031692800bd
:1011f800e08b200098ff07000004e00003003a009d
:1012080030c8bf000004e000f8ff32003169280050
:10121800e08b200090ff07000080fb001041880051
:101228001041800064005000e18b2000614078008c
:1012380024e8b70030002000604188009cff0700c8
:1012480000b42400c1042000ed0307000080fa0068
:10125800000006000000fa00e069280062ff0700ad
:1012680024c8bf0054ff0700d0c0b30052ff0700d6
:1012780080382100704188003068ef002228ef0094
:1012880000000000716a2800e08b200072ff070050
:101298000004e00003003a0030c8bf000004e0008a
:1012a800f8ff3200716a2800e08b20006aff07000f
:1012b8000080fb0010418800104180000000e00021
:1012c80002003200400020006041880078ff0700db
:1012d8000080fa00000006000000fa00306b2800c9
:1012e80041ff0700c06b28003fff0700d0c0b300d4
:1012f80031ff070080bb2000704188003068ef0094
:101308002228ef0000000000416c2800e08b20003c
:1013180051ff07000080fb000000e9004f00de00dd
:101328008040780030c8bf000080fb000000e90062
:101338004f00de000040780000c060000004e000bc
:10134800f1ff3a00c16b2800e08b200042ff070044
:101358000080fb0010418800104180000000e00080
:1013680007003200b16c2800e08b20003aff07002c
:101378000080fb0030418800500020006041880058
:101388002a68ef00080037002ac8bf000080fb0069
:10139800a18420000041eb00827078002ac8bf00b9
:1013a8000040e8002ae8b7002ac8bf00ef4f500005
:1013b800f5ff36002a68ef000f0037002ac8bf0083
:1013c8000080fb00a1822000914078000181fb0091
:1013d8003141800081004100e28b2000e2c07800aa
:1013e80001417800a1842000827078002ac8bf00db
:1013f8000040e8002ae8b7002ac8bf008080fb0048
:101408003041800000804000e18b2000e1407800fe
:10141800c0c2b30080cf5000e8ff3a0024ff0700a5
:101428000080fa00000006000400fa00000f7800af
:1014380011079800f06c2800ebfe07000024240038
:10144800f10020006e030700f4fe0700206e28005c
:10145800e5fe0700a0842000e3fe0700d0c0b3002b
:10146800d5fe070000ee2200704188003068ef00ca
:101478002228ef0000000000b16e2800e08b200059
:10148800f5fe07000004e00003003a0030c8bf0082
:101498000004e000f8ff3200b16e2800e08b200065
:1014a800edfe07000080fb0010418800104180001d
:1014b8000000e00012003200d06e2800cafe0700cb
:1014c8001e009000c8fe070000c2b300bafe070065
:1014d80030c4b300b8fe0700a0c0b300b6fe0700d2
:1014e80030702800c0fe07001e007800befe07000e
:1014f800d0c0b300b0fe0700a0c1b300aefe070025
:1015080000712200704188003068ef002228ef0047
:101518000000000081672800e08b2000cefe070055
:101528000004e00003003a0030c8bf000004e000f7
:10153800f8ff320081672800e08b2000c6fe070014
:101548000080fb0010418800104180000000e0008e
:10155800020032006000200060418800d4fe0700cd
:101568000080fa00000006000000fa00b0702800b1
:101578009dfe070024c8bf008ffe0700d0c0b3003f
:101588008dfe0700007d2000704188003068ef0064
:101598002228ef000000000081672800e08b20006f
:1015a800adfe07000004e00003003a0030c8bf00a9
:1015b8000004e000f8ff320081672800e08b20007b
:1015c800a5fe07000080fb00104188001041800044
:1015d8000000e000010032002c28ef00b4fe0700f4
:1015e8000080fa00000006000000fa00e0c2a9002e
:1015f800e4c2a8000080fa00000006000000fa001b
:10160800e0c2a900e4c2a900002c210001002000ca
:10161800fb020700e0c2a80080252000010020008e
:10162800f702070011178000000420000080600006
:101638000000e00005003a00002c21000100200015
:10164800ef0207000040eb0004003700002c2100e7
:1016580001002000ea02070010c0b3000080fa0071
:10166800000006000400fa0020479800e0c2a90024
:101678000000eb00000f78000000eb00000f78007e
:101688001a0037002e4090008080fb001e00780072
:101698000088de0061006000004078000004e0007f
:1016a80009003200e4c2a900c003200001002000a4
:1016b800d3020700e4c2a80000282000010020008f
:1016c800cf02070008003700e4c2a90080252000e7
:1016d80001002000ca020700e4c2a800400620005a
:1016e80001002000c60207001e0fe8001e00780057
:1016f800e70f5000e3ff34000080fa000000060006
:101708000400fa000040eb00004f7800e0c2a80097
:101718000000eb00100798000000eb00100798008d
:1017280019003700e0c2a900e4c2a900c0032000e4
:1017380001002000b2020700e0c2a800a0052000b6
:1017480001002000ae0207001117800000042000ed
:10175800008060000000e000050032001100200059
:101768001e0090000008dd00004078001e4f700049
:101778006022200001002000a10207001e00900046
:101788000000e800100798001e009000e70f5000c6
:10179800e4ff34001e4078000080fa0000000600d4
:1017a8000200fa00881f7800000f780093ff0700f6
:1017b8000004e000020032000040eb001e00370089
:1017c800c0ccb300a7ff070040c4b300a5ff0700c3
:1017d80000000000caff07000004e000fdff32001f
:1017e80086ff07000004e000020032000040eb0022
:1017f80011003700c0ccb3009aff0700e0cbb3005c
:1018080098ff0700beff07008080fb001e007800dd
:10181800010878001e00780010047800b8ff07005f
:101828000080fb004800dd00880070001e00780082
:101838000108780010c0b3004f0478000080fa0057
:10184800000006000200fa00000f780080842000e3
:10185800d3ff07000004e000790032004042800016
:101868000000e00007003d001e007800d1c2b30070
:1018780001487800404280000000ea0040428800a9
:101888000c00370040428000c400de003006200013
:10189800808f5000040036001e00780011c3b3008a
:1018a80001487800030037001e00780001c2b30029
:1018b800014878009e01e80040428000c400de0034
:1018c800d0cc2c000008b8004309de00d0cc2c0096
:1018d8000010b8004308de006a00b9000000780074
:1018e80000005100004078000043b00080497800b3
:1018f8009e81e800404280004401de00d0cc2c00ec
:101908000010b8004308de006a00b9000000780043
:1019180000005100004078000043b0008049780082
:101928009e0078006481400040428000ef00600023
:10193800102720000088b90000007800c300de00ee
:10194800500c22000008b8004408de00004078006f
:101958000043b000004978009e007800e58140000f
:1019680040428000ef006000102720000088b90086
:1019780000007800c200de00b04721000008b8006f
:101988000101d100d0cc2c000010b8004308de00c3
:101998006a00b9000000780000005100004078009b
:1019a8000043b000804978009e007800e68140003e
:1019b80040428000ef006000102720000088b90036
:1019c80080007800d0cc2c000008b8004309de0065
:1019d800d0cc2c000010b8004308de006a00b90023
:1019e8000000780000005100004078000043b0007b
:1019f800804978009e007800e781400040428000de
:101a0800ef006000102720000088b900000178006e
:101a1800d0cc2c000010b8004308de006a00b900e2
:101a28000000780000005100004078000043b0003a
:101a380080497800007d200001002000f0010700a7
:101a48000080fa00000006000000fa000080eb00a9
:101a580060198800c902a900c922a900c942a900c1
:101a6800c962a900c9a2a900c982a800cd02a9001b
:101a7800cd22a900cd42a900cd62a900d1a2a9001a
:101a8800d1c2a900d5a2a900d3a2a900d5c2a90094
:101a9800d3c2a900020007000080fa000000060077
:101aa8000000fa009660a80063c0a90061058000e4
:101ab800000027000100700060058800c982a800a6
:101ac8008660a9000080fa00000006000000fa0005
:101ad80063c0a8008660a9000080fa000000060024
:101ae8000000fa0063c0a9008660a9000080fa001f
:101af800000006000000fa0011e1a90011a1a900e8
:101b080081088000f0fc2f00008060000040a000e9
:101b1800800888001061a9001021a90010c1a9003f
:101b28000621ef000080fa00000006000200fa001b
:101b38000621ef00e5ff07000000000000418000db
:101b48000000e000fdff32002028ef00c1408000c7
:101b5800010f78001e0078008000eb000080fa007a
:101b6800000006000800fa00889fbe0010079800d1
:101b78002107980032079800be0090002e009000c0
:101b8800008050008000eb0072fb07000004be00dc
:101b98009e0090002e009000008050008000eb0016
:101ba8006cfb07000001be000800be000cfb07002c
:101bb80002002000f3372400bbfb07004afb0700a4
:101bc800000f78001e0078004f04be000080fa0065
:101bd800000006000200fa00004f78001e80fb009b
:101be800e10f50000d003200e10f500003003c00ef
:101bf8000000e0000600320011003700e20f50003c
:101c080009003200e30f50000a0032000c003700d0
:101c1800cd42a900cd62a90009003700cd42a90034
:101c2800cd62a80006003700cd42a800cd62a90009
:101c380003003700cd42a800cd62a80000000000d4
:101c48000080fa00000006000200fa00004f780049
:101c58001e80fb00e10f50000d003200e10f500024
:101c680003003c000000e0000600320010003700ce
:101c7800e20f500009003200e30f50000a00320062
:101c88000b003700cd02a900cd22a90008003700bb
:101c9800cd02a900cd22a80005003700cd02a8007a
:101ca800cd22a90002003700cd02a800cd22a8004d
:101cb8000080fa00000006000200fa0088ff070012
:101cc8000040eb00c3ff070000242400f1002000bf
:101cd8004b01070095ff0700000f78001e007800f1
:101ce8000080fa00000006000200fa007cff0700ee
:101cf80010c0b300b7ff070000242400f100200043
:101d08003f01070089ff0700000f78001e007800d8
:101d18000080fa00000006000200fa0070ff0700c9
:101d280030c0b300abff070000242400f1002000fe
:101d3800330107007dff0700000f78001e007800c0
:101d48000080fa00000006004400fa00a00320000a
:101d58000e0040000203230003e322000288be00b5
:101d68006400400002032300030323000288be002e
:101d7800640040008040eb00014878000000e80063
:101d88000000eb00000f78003701070016fe07007f
:101d98002dff0700006829008109200018010700ad
:101da80054ff070030c0b300a7ff070000682900f0
:101db800810920001201070098fc07002c28ef0079
:101dc800a00320000e0040009efe0700006c2c00bf
:101dd800d10220000a010700b7ff0700100798008a
:101de800006c2c00d102200005010700caff070083
:101df80020079800006c2c00d10220000001070089
:101e0800b9ff070030079800006c2c00d1022000b1
:101e1800fb000700be0090002e009000808040006c
:101e28001e00900080804000b0aa2a000008b80078
:101e38000100d100000f7800f02c20009e007800ef
:101e4800808f500008003600c04420009e007800b3
:101e5800808f500004003e006800470062002000a8
:101e68004171280073fb0700502220009e00780073
:101e7800808f500008003600f02c20009e0078006b
:101e8800808f500004003e00680047004200200098
:101e9800a171280067fb0700502220009e007800ef
:101ea800808f50000c003600c04420009e0078004f
:101eb800808f500004003600305120009e007800ca
:101ec800808f500004003600406a20009e00780091
:101ed800808f50000400360068004700d2002000c0
:101ee800e171280053fb070060418000e30f5000b8
:101ef80014003200e30f500005003e00e10f5000cf
:101f08000c003200e10f50000c003e0007003700c3
:101f1800e50f50000f003200e50f50000b003900ac
:101f2800e60f500010003200110037006cfc07006b
:101f38001100370087fc07000f003700a2fc0700dc
:101f48000d003700c3fc07000b003700e2fc070058
:101f580009003700a10320008e8040006800470078
:101f680031fd0700040037007ffd0700020037003d
:0c1f78002c28ef0092ff370091ff37008b
:020000040000fa
:101f8400ca0900000c0000000200000030303000dc
:101f94002e30300030302000430000004a0800009a
:101fa400de00000000000000220800001000000015
:101fb400000000008c090000200000000000000068
:101fc400460800000200000002000000ffff0000bd
:101fd4002809000064000000000000003e08000022
:101fe4000800000000000000d60900000a000000fc
:101ff400000000004808000002000000000000008b
:10200400ac0900001e0000000000000032080000bf
:102014000c00000002000000b600bc0004b6000082
:10202400ac04b50000aa040000080000220000006f
:082034000000000000000000a4
:020000040000fa
:10203c000000fa00cc22ef00d422ef00dc22ef00eb
:10204c00e422ef00ec22ef00f422ef000080eb0022
:10205c00401688000000270080168800f0df200062
:10206c00c0168800f00f200000178800f007200031
:10207c0040178800c03c2000801788005420ef00d7
:10208c005620ef005820ef005a20ef005c20ef00a4
:10209c005e20ef006c20ef006e20ef007020ef0050
:1020ac007220ef007420ef007620ef00ce22ef00bc
:1020bc00d622ef00de22ef00e622ef00ee22ef0048
:1020cc00f622ef002a23ef00300020006019880070
:1020dc000080fa00000006000000fa000010230047
:1020ec00203a88004827ef004e27ef007027ef00ba
:1020fc007227ef007427ef007627ef007827ef00a8
:10210c007a27ef003200200080072000a109200070
:10211c003374200080497800814978008249780026
:10212c000001eb00600420007105200023742000e6
:10213c008049780081497800824978000080fa0053
:10214c00000006000000fa0021068000f0f82f00c5
:10215c00008060000040a00020068800510580002f
:10216c0080ff2f00008060000000a0005005880058
:10217c0041058000f0ff28000080600000c0a00036
:10218c004005880021058000f0ff280000806000d9
:10219c0000c0a000200588000080fa0000000600a6
:1021ac000000fa0005e1a9008460a90005a1a800bf
:1021bc0021088000f0fc2f000080600020088800bf
:1021cc000441a90004c1a9000421a9002105800033
:1021dc00f0f82f00008060000040a000200588006f
:1021ec009460a80000712200100888000021ef0004
:0c21fc0005e1a8000080fa0000000600c9
:020000040000fa
:10220800f03fb1000180b10006003500ee0309007f
:1022180000000000403fb1000180b100fbff3d001d
:102228001000b000203fb000020035000080090017
:08223800000000000000060098
:020000040000fa
:102240000200fa00000f78009e00780031428800fa
:10225000ffff37000000fa00c098200080077800d8
:10226000409a2000000188000080fa00000006006b
:102270000000fa0071ff0700b5ff070099ff070093
:10228000caff0700f4fa07000080fa000000060009
:020000040000fa
:020000040005f5
:0457f400ffff0000b3
:020000040000fa
:020000040005f5
:0457f8009ff100001d
:020000040000fa
:020000040005f5
:0457fc007f3f0000eb
:00000001FF
